:100000000C9434000C9451000C9451000C94510049
:100010000C9451000C9451000C9451000C9451001C
:100020000C9451000C9451000C9451000C9451000C
:100030000C9451000C9451000C9451000C945100FC
:100040000C9451000C94D3010C9451000C94510069
:100050000C9451000C9432010C9451000C945100FA
:100060000C9451000C94510011241FBECFEFD8E026
:10007000DEBFCDBF11E0A0E0B1E0E8EDF5E002C0E9
:1000800005900D92AA30B107D9F721E0AAE0B1E0BE
:1000900001C01D92AE30B207E1F70E949D010C94A1
:1000A000EA020C940000CF93DF93CDB7DEB78AE766
:1000B00090E02AE730E0F90120812068FC012083EC
:1000C0008AE790E02AE730E0F90120812F7DFC01EA
:1000D000208386E00E94880081E00E949F008CE7D8
:1000E00090E02CE730E0F90120812F7DFC01208396
:1000F0008AE790E02AE730E0F90120812860FC01DE
:10010000208310920D0178940000DF91CF91089523
:10011000CF93DF931F92CDB7DEB789838AE790E054
:100120002AE730E0F9012081322F387F2981232B03
:10013000FC01208300000F90DF91CF910895CF93B1
:10014000DF931F92CDB7DEB789838CE790E02CE771
:1001500030E0F9012081422F4F732981222F30E0B6
:100160000024369527950794369527950794322FC6
:10017000202D242BFC01208300000F90DF91CF91D4
:100180000895CF93DF93CDB7DEB78AE790E02AE7F3
:1001900030E0F90120812061FC0120838AE790E0B2
:1001A0002AE730E0F90120812064FC01208300006F
:1001B000DF91CF910895CF93DF931F92CDB7DEB734
:1001C000898310920D018CE790E02CE730E0F90173
:1001D0002081322F307E29812F71232BFC01208337
:1001E0008AE790E02AE730E0F90120812061FC01F4
:1001F00020838AE790E02AE730E0F901208120643B
:10020000FC01208300008AE790E0FC018081882FB8
:1002100090E080749927892BB1F788E790E0FC0182
:100220008081282F30E089E790E0FC018081882FD1
:1002300090E0982F8827822B932B0F90DF91CF91FE
:100240000895CF93DF931F92CDB7DEB7898389815D
:100250000E94DB0096958795969587950F90DF9184
:10026000CF9108951F920F9200905F000F9211247A
:100270008F93CF93DF93CDB7DEB78FEF80930D01D0
:100280000000DF91CF918F910F9000925F000F904F
:100290001F901895CF93DF93CDB7DEB78AE290E039
:1002A0002AE230E0F90130812CE32327FC0120838E
:1002B0008BE290E02BE230E0F90120812C63FC011D
:1002C00020830000DF91CF910895CF93DF9300D07A
:1002D000CDB7DEB79A83898389819A810496FC0120
:1002E000108289E290E0FC018081882F90E0809567
:1002F0009095AC014C73552789819A810496298188
:100300003A812C5F3F4FF9012081322F242F232B7C
:10031000FC01208389819A81049629813A812C5F8E
:100320003F4FF901208126952695FC01208300008E
:100330000F900F90DF91CF910895CF93DF9300D06E
:1003400000D0CDB7DEB79A8389837C836B830E940C
:10035000530085E00E94880081E00E949F000E9477
:10036000C1000E944A010E946F028EE490E02FEFCC
:10037000FC01208380E00E9421018093000181E044
:100380000E9421018093010182E00E94210180935B
:10039000020183E00E9421018093030180E091E04B
:1003A0000E946501E7CF1F920F9200905F000F92AD
:1003B00011242F933F938F939F93EF93FF93CF93AA
:1003C000DF931F92CDB7DEB78EE490E0FC01808111
:1003D00089838981882F90E08230910589F083306C
:1003E0009105D9F0019709F02AC08091090188236D
:1003F00009F11092090110920B0110920C011AC020
:10040000809109018130C1F081E08093090182E08F
:1004100080930B0110920C010FC080910901823072
:1004200069F082E08093090184E080930B011092CF
:100430000C0104C0000003C0000001C00000809156
:100440000901882341F080910901813021F08091D8
:100450000901823061F580910901882F90E08A5F5F
:100460009E4FFC01908180910C018917B8F48EE4B5
:1004700090E020910B01222F30E020503F4FF901F6
:100480002081FC01208380910B018F5F80930B0101
:1004900080910C018F5F80930C010EC08EE490E080
:1004A0002FEFFC01208383E08093090105C08EE4D7
:1004B00090E02FEFFC0120838FEF80930A01000072
:1004C0000F90DF91CF91FF91EF919F918F913F918D
:1004D0002F910F9000925F000F901F901895CF936F
:1004E000DF93CDB7DEB785E290E025E230E0F90199
:1004F00020812062FC01208384E290E024E230E04D
:10050000F90120812F7DFC01208384E290E024E228
:1005100030E0F90120812061FC01208384E290E039
:1005200024E230E0F9012081277FFC01208384E26E
:1005300090E024E230E0F90120812B7FFC01208350
:100540008CE490E02CE430E0F90120812E7FFC0166
:1005500020838CE490E02CE430E0F90120812260DB
:10056000FC0120838CE490E02CE430E0F901208150
:10057000277FFC0120838CE490E02CE430E0F9013B
:1005800020812B7FFC0120838CE490E02CE430E080
:10059000F90120812F7DFC0120838CE490E02CE484
:1005A00030E0F90120812064FC0120838CE490E09C
:1005B0002CE430E0F90120812068FC0120838DE4E7
:1005C00090E0FC0180818FEF80930A010000DF91B1
:0805D000CF910895F894FFCFCC
:0A05D80002030106070402020203F9
:00000001FF
